{
  "contractName": "MyContract",
  "abi": [
    {
      "constant": true,
      "inputs": [
        {
          "name": "",
          "type": "address"
        }
      ],
      "name": "vehicleMapping",
      "outputs": [
        {
          "name": "vid",
          "type": "uint256"
        },
        {
          "name": "vehicle",
          "type": "address"
        },
        {
          "name": "price_per_km",
          "type": "uint256"
        },
        {
          "name": "time",
          "type": "uint256"
        },
        {
          "name": "price",
          "type": "uint256"
        }
      ],
      "payable": false,
      "stateMutability": "view",
      "type": "function",
      "signature": "0xbc4fcf35"
    },
    {
      "constant": true,
      "inputs": [
        {
          "name": "",
          "type": "address"
        }
      ],
      "name": "reg_vehicle",
      "outputs": [
        {
          "name": "",
          "type": "bool"
        }
      ],
      "payable": false,
      "stateMutability": "view",
      "type": "function",
      "signature": "0xdfead503"
    },
    {
      "inputs": [],
      "payable": false,
      "stateMutability": "nonpayable",
      "type": "constructor",
      "signature": "constructor"
    },
    {
      "constant": true,
      "inputs": [],
      "name": "getVehicle",
      "outputs": [
        {
          "name": "",
          "type": "uint256"
        }
      ],
      "payable": false,
      "stateMutability": "view",
      "type": "function",
      "signature": "0x7237cd65"
    },
    {
      "constant": true,
      "inputs": [],
      "name": "getindex",
      "outputs": [
        {
          "name": "",
          "type": "uint256"
        }
      ],
      "payable": false,
      "stateMutability": "view",
      "type": "function",
      "signature": "0x879647e2"
    },
    {
      "constant": true,
      "inputs": [],
      "name": "getStatusLocation",
      "outputs": [
        {
          "name": "",
          "type": "string[]"
        }
      ],
      "payable": false,
      "stateMutability": "view",
      "type": "function",
      "signature": "0x88bc2dc1"
    },
    {
      "constant": true,
      "inputs": [],
      "name": "getStatusTime",
      "outputs": [
        {
          "name": "",
          "type": "uint256[]"
        }
      ],
      "payable": false,
      "stateMutability": "view",
      "type": "function",
      "signature": "0x3e0a56b0"
    },
    {
      "constant": true,
      "inputs": [],
      "name": "getStatusPrice",
      "outputs": [
        {
          "name": "",
          "type": "uint256[]"
        }
      ],
      "payable": false,
      "stateMutability": "view",
      "type": "function",
      "signature": "0x557ccbda"
    },
    {
      "constant": true,
      "inputs": [
        {
          "name": "e",
          "type": "string"
        }
      ],
      "name": "getDistance",
      "outputs": [
        {
          "name": "",
          "type": "uint256"
        }
      ],
      "payable": false,
      "stateMutability": "view",
      "type": "function",
      "signature": "0xf560026f"
    },
    {
      "constant": false,
      "inputs": [
        {
          "name": "price",
          "type": "uint256"
        }
      ],
      "name": "regVehicle",
      "outputs": [
        {
          "name": "",
          "type": "string"
        }
      ],
      "payable": false,
      "stateMutability": "nonpayable",
      "type": "function",
      "signature": "0x64f3a19a"
    },
    {
      "constant": false,
      "inputs": [
        {
          "name": "_Location",
          "type": "string"
        }
      ],
      "name": "updateLocation",
      "outputs": [
        {
          "name": "",
          "type": "string"
        }
      ],
      "payable": false,
      "stateMutability": "nonpayable",
      "type": "function",
      "signature": "0x932354c1"
    },
    {
      "constant": true,
      "inputs": [],
      "name": "getPrice",
      "outputs": [
        {
          "name": "",
          "type": "uint256"
        }
      ],
      "payable": false,
      "stateMutability": "view",
      "type": "function",
      "signature": "0x98d5fdca"
    },
    {
      "constant": false,
      "inputs": [
        {
          "name": "distance",
          "type": "uint256"
        }
      ],
      "name": "generateBill",
      "outputs": [
        {
          "name": "",
          "type": "string"
        }
      ],
      "payable": false,
      "stateMutability": "nonpayable",
      "type": "function",
      "signature": "0x99d2223a"
    }
  ],
  "bytecode": "0x608060405234801561001057600080fd5b5060008081905550611507806100276000396000f3fe6080604052600436106100ba576000357c0100000000000000000000000000000000000000000000000000000000900463ffffffff1680633e0a56b0146100bf578063557ccbda146100ea57806364f3a19a146101155780637237cd6514610152578063879647e21461017d57806388bc2dc1146101a8578063932354c1146101d357806398d5fdca1461021057806399d2223a1461023b578063bc4fcf3514610278578063dfead503146102b9578063f560026f146102f6575b600080fd5b3480156100cb57600080fd5b506100d4610333565b6040516100e19190611290565b60405180910390f35b3480156100f657600080fd5b506100ff6103cb565b60405161010c9190611290565b60405180910390f35b34801561012157600080fd5b5061013c600480360361013791908101906110e3565b610463565b60405161014991906112cd565b60405180910390f35b34801561015e57600080fd5b5061016761097c565b60405161017491906112ef565b60405180910390f35b34801561018957600080fd5b506101926109c6565b60405161019f91906112ef565b60405180910390f35b3480156101b457600080fd5b506101bd6109cf565b6040516101ca919061126e565b60405180910390f35b3480156101df57600080fd5b506101fa60048036036101f591908101906110a2565b610af8565b60405161020791906112cd565b60405180910390f35b34801561021c57600080fd5b50610225610cd0565b60405161023291906112ef565b60405180910390f35b34801561024757600080fd5b50610262600480360361025d91908101906110e3565b610d1a565b60405161026f91906112cd565b60405180910390f35b34801561028457600080fd5b5061029f600480360361029a9190810190611079565b610e2b565b6040516102b095949392919061130a565b60405180910390f35b3480156102c557600080fd5b506102e060048036036102db9190810190611079565b610e81565b6040516102ed91906112b2565b60405180910390f35b34801561030257600080fd5b5061031d600480360361031891908101906110a2565b610ea1565b60405161032a91906112ef565b60405180910390f35b6060600260003373ffffffffffffffffffffffffffffffffffffffff1673ffffffffffffffffffffffffffffffffffffffff1681526020019081526020016000206001018054806020026020016040519081016040528092919081815260200182805480156103c157602002820191906000526020600020905b8154815260200190600101908083116103ad575b5050505050905090565b6060600260003373ffffffffffffffffffffffffffffffffffffffff1673ffffffffffffffffffffffffffffffffffffffff16815260200190815260200160002060020180548060200260200160405190810160405280929190818152602001828054801561045957602002820191906000526020600020905b815481526020019060010190808311610445575b5050505050905090565b606060011515600360003373ffffffffffffffffffffffffffffffffffffffff1673ffffffffffffffffffffffffffffffffffffffff16815260200190815260200160002060009054906101000a900460ff161515141561052257606060405190810160405280602181526020017f4d756c7469706c6520726567697374726174696f6e204e6f7420416c6c6f776581526020017f64000000000000000000000000000000000000000000000000000000000000008152509050610977565b6001600360003373ffffffffffffffffffffffffffffffffffffffff1673ffffffffffffffffffffffffffffffffffffffff16815260200190815260200160002060006101000a81548160ff0219169083151502179055506000808154809291906001019190505550600054600160003373ffffffffffffffffffffffffffffffffffffffff1673ffffffffffffffffffffffffffffffffffffffff1681526020019081526020016000206000018190555081600160003373ffffffffffffffffffffffffffffffffffffffff1673ffffffffffffffffffffffffffffffffffffffff1681526020019081526020016000206002018190555042600160003373ffffffffffffffffffffffffffffffffffffffff1673ffffffffffffffffffffffffffffffffffffffff168152602001908152602001600020600401819055506000600160003373ffffffffffffffffffffffffffffffffffffffff1673ffffffffffffffffffffffffffffffffffffffff16815260200190815260200160002060050181905550600c600160003373ffffffffffffffffffffffffffffffffffffffff1673ffffffffffffffffffffffffffffffffffffffff16815260200190815260200160002060030160405180807f32352c353100000000000000000000000000000000000000000000000000000081525060050190509081526020016040518091039020819055506022600160003373ffffffffffffffffffffffffffffffffffffffff1673ffffffffffffffffffffffffffffffffffffffff16815260200190815260200160002060030160405180807f32322c353300000000000000000000000000000000000000000000000000000081525060050190509081526020016040518091039020819055506029600160003373ffffffffffffffffffffffffffffffffffffffff1673ffffffffffffffffffffffffffffffffffffffff16815260200190815260200160002060030160405180807f32332c36320000000000000000000000000000000000000000000000000000008152506005019050908152602001604051809103902081905550601d600160003373ffffffffffffffffffffffffffffffffffffffff1673ffffffffffffffffffffffffffffffffffffffff16815260200190815260200160002060030160405180807f32362c373100000000000000000000000000000000000000000000000000000081525060050190509081526020016040518091039020819055506021600160003373ffffffffffffffffffffffffffffffffffffffff1673ffffffffffffffffffffffffffffffffffffffff16815260200190815260200160002060030160405180807f32342c333300000000000000000000000000000000000000000000000000000081525060050190509081526020016040518091039020819055506040805190810160405280601f81526020017f56656869636c652052656769737465726564205375636365737366756c6c790081525090505b919050565b6000600160003373ffffffffffffffffffffffffffffffffffffffff1673ffffffffffffffffffffffffffffffffffffffff16815260200190815260200160002060000154905090565b60008054905090565b6060600260003373ffffffffffffffffffffffffffffffffffffffff1673ffffffffffffffffffffffffffffffffffffffff168152602001908152602001600020600001805480602002602001604051908101604052809291908181526020016000905b82821015610aef578382906000526020600020018054600181600116156101000203166002900480601f016020809104026020016040519081016040528092919081815260200182805460018160011615610100020316600290048015610adb5780601f10610ab057610100808354040283529160200191610adb565b820191906000526020600020905b815481529060010190602001808311610abe57829003601f168201915b505050505081526020019060010190610a33565b50505050905090565b6060600260003373ffffffffffffffffffffffffffffffffffffffff1673ffffffffffffffffffffffffffffffffffffffff168152602001908152602001600020600001829080600181540180825580915050906001820390600052602060002001600090919290919091509080519060200190610b77929190610f56565b5050600260003373ffffffffffffffffffffffffffffffffffffffff1673ffffffffffffffffffffffffffffffffffffffff168152602001908152602001600020600101429080600181540180825580915050906001820390600052602060002001600090919290919091505550600260003373ffffffffffffffffffffffffffffffffffffffff1673ffffffffffffffffffffffffffffffffffffffff168152602001908152602001600020600201600160003373ffffffffffffffffffffffffffffffffffffffff1673ffffffffffffffffffffffffffffffffffffffff1681526020019081526020016000206005015490806001815401808255809150509060018203906000526020600020016000909192909190915055506040805190810160405280601781526020017f4c6f636174696f6e2064657461696c20757064617465640000000000000000008152509050919050565b6000600160003373ffffffffffffffffffffffffffffffffffffffff1673ffffffffffffffffffffffffffffffffffffffff16815260200190815260200160002060050154905090565b6060600160003373ffffffffffffffffffffffffffffffffffffffff1673ffffffffffffffffffffffffffffffffffffffff168152602001908152602001600020600201548202600160003373ffffffffffffffffffffffffffffffffffffffff1673ffffffffffffffffffffffffffffffffffffffff1681526020019081526020016000206005018190555042600160003373ffffffffffffffffffffffffffffffffffffffff1673ffffffffffffffffffffffffffffffffffffffff168152602001908152602001600020600401819055506040805190810160405280600a81526020017f42696c6c206164646564000000000000000000000000000000000000000000008152509050919050565b60016020528060005260406000206000915090508060000154908060010160009054906101000a900473ffffffffffffffffffffffffffffffffffffffff16908060020154908060040154908060050154905085565b60036020528060005260406000206000915054906101000a900460ff1681565b6000600160003373ffffffffffffffffffffffffffffffffffffffff1673ffffffffffffffffffffffffffffffffffffffff168152602001908152602001600020600301826040518082805190602001908083835b602083101515610f1b5780518252602082019150602081019050602083039250610ef6565b6001836020036101000a0380198251168184511680821785525050505050509050019150509081526020016040518091039020549050919050565b828054600181600116156101000203166002900490600052602060002090601f016020900481019282601f10610f9757805160ff1916838001178555610fc5565b82800160010185558215610fc5579182015b82811115610fc4578251825591602001919060010190610fa9565b5b509050610fd29190610fd6565b5090565b610ff891905b80821115610ff4576000816000905550600101610fdc565b5090565b90565b6000611007823561145e565b905092915050565b600082601f830112151561102257600080fd5b81356110356110308261138a565b61135d565b9150808252602083016020830185838301111561105157600080fd5b61105c83828461147a565b50505092915050565b60006110718235611470565b905092915050565b60006020828403121561108b57600080fd5b600061109984828501610ffb565b91505092915050565b6000602082840312156110b457600080fd5b600082013567ffffffffffffffff8111156110ce57600080fd5b6110da8482850161100f565b91505092915050565b6000602082840312156110f557600080fd5b600061110384828501611065565b91505092915050565b61111581611416565b82525050565b6000611126826113d0565b8084526020840193508360208202850161113f856113b6565b60005b8481101561117857838303885261115a838351611229565b9250611165826113fc565b9150602088019750600181019050611142565b508196508694505050505092915050565b6000611194826113db565b8084526020840193506111a6836113c3565b60005b828110156111d8576111bc86835161125f565b6111c582611409565b91506020860195506001810190506111a9565b50849250505092915050565b6111ed81611428565b82525050565b60006111fe826113f1565b808452611212816020860160208601611489565b61121b816114bc565b602085010191505092915050565b6000611234826113e6565b808452611248816020860160208601611489565b611251816114bc565b602085010191505092915050565b61126881611454565b82525050565b60006020820190508181036000830152611288818461111b565b905092915050565b600060208201905081810360008301526112aa8184611189565b905092915050565b60006020820190506112c760008301846111e4565b92915050565b600060208201905081810360008301526112e781846111f3565b905092915050565b6000602082019050611304600083018461125f565b92915050565b600060a08201905061131f600083018861125f565b61132c602083018761110c565b611339604083018661125f565b611346606083018561125f565b611353608083018461125f565b9695505050505050565b6000604051905081810181811067ffffffffffffffff8211171561138057600080fd5b8060405250919050565b600067ffffffffffffffff8211156113a157600080fd5b601f19601f8301169050602081019050919050565b6000602082019050919050565b6000602082019050919050565b600081519050919050565b600081519050919050565b600081519050919050565b600081519050919050565b6000602082019050919050565b6000602082019050919050565b600061142182611434565b9050919050565b60008115159050919050565b600073ffffffffffffffffffffffffffffffffffffffff82169050919050565b6000819050919050565b600061146982611434565b9050919050565b6000819050919050565b82818337600083830152505050565b60005b838110156114a757808201518184015260208101905061148c565b838111156114b6576000848401525b50505050565b6000601f19601f830116905091905056fea265627a7a723058205b1ba6a6aa9cc2aa8d0ba7354b1901726ab460aa170acfa4fb18cebff930c3996c6578706572696d656e74616cf50037",
  "source": "pragma solidity >=0.4.22 <0.9.0;\npragma experimental ABIEncoderV2;\ncontract MyContract{\n    struct vehicle{\n        uint vid;\n        address vehicle;\n        uint price_per_km;\n        mapping(string=>uint)d;\n        uint time;\n        uint price;\n    }\n    struct status{\n        string [] Location;\n        uint [] time;\n        uint []price;\n    }\n    uint i;\n    constructor()public{\n        i=0;\n    }\nmapping(address => vehicle) public vehicleMapping;\nmapping(address => status) statusMapping;\nmapping(address => bool) public reg_vehicle;\nfunction getVehicle() public view returns(uint){\n    return vehicleMapping[msg.sender].vid;\n}\nfunction getindex() public view returns(uint){\n    return i;\n}\nfunction getStatusLocation() public view returns(string[] memory){\n    return statusMapping[msg.sender].Location;\n}\nfunction getStatusTime() public view returns(uint[] memory){\n    return statusMapping[msg.sender].time;\n}\nfunction getStatusPrice() public view returns(uint[] memory){\n    return statusMapping[msg.sender].price;\n}\nfunction getDistance(string memory e) public view returns(uint){\n    return vehicleMapping[msg.sender].d[e];\n}\nfunction regVehicle(uint price) public returns(string memory){\n    if(reg_vehicle[msg.sender]==true)\n        return \"Multiple registration Not Allowed\";\n    reg_vehicle[msg.sender]=true;\n    i++;\n    vehicleMapping[msg.sender].vid=i;\n    vehicleMapping[msg.sender].price_per_km=price;\n    vehicleMapping[msg.sender].time=block.timestamp;\n    vehicleMapping[msg.sender].price=0;\n    vehicleMapping[msg.sender].d['25,51']=12;\n    vehicleMapping[msg.sender].d['22,53']=34;\n    vehicleMapping[msg.sender].d['23,62']=41;\n    vehicleMapping[msg.sender].d['26,71']=29;\n    vehicleMapping[msg.sender].d['24,33']=33;\n    return \"Vehicle Registered Successfully\";\n}\nfunction updateLocation(string memory _Location) public returns(string memory){\n    statusMapping[msg.sender].Location.push(_Location);\n    statusMapping[msg.sender].time.push(block.timestamp);\n    statusMapping[msg.sender].price.push(vehicleMapping[msg.sender].price);\n    return \"Location detail updated\";\n    \n}\nfunction getPrice() public view returns (uint){\n    return vehicleMapping[msg.sender].price;\n}\nfunction generateBill(uint distance)public returns(string memory){\n    vehicleMapping[msg.sender].price=distance*vehicleMapping[msg.sender].price_per_km;\n    vehicleMapping[msg.sender].time=block.timestamp;\n    return \"Bill added\";\n}\n}",
  "sourcePath": "/home/aravind/vehicle/contracts/MyContract.sol",
  "compiler": {
    "name": "solc",
    "version": "0.5.0+commit.1d4f565a.Emscripten.clang"
  },
  "schemaVersion": "3.0.1",
  "updatedAt": "2021-06-22T17:53:16.331Z",
  "devdoc": {
    "methods": {}
  },
  "userdoc": {
    "methods": {}
  }
}